:100000005CC0000077C0000075C0000073C0000035
:1000100071C000006FC000006DC000006BC0000028
:1000200069C0000067C0000065C0000063C0000038
:1000300061C000005FC000005DC0000060C1000042
:1000400059C0000057C0000055C0000053C0000058
:1000500051C000004FC000004DC000004BC0000068
:1000600049C0000047C0000045C0000043C0000078
:1000700041C000003FC000003DC000003BC0000088
:1000800039C0000037C0000035C00000020217026E
:10009000050208020B020E02110257020A036C024B
:1000A000770284028F029C02A702B402C102CE0230
:1000B000D902E602F3020A03000311241FBECFEFA8
:1000C000D0E1DEBFCDBF11E0A0E0B1E0ECE3FFE0A6
:1000D00000E00BBF02C007900D92A437B107D9F71B
:1000E00021E0A4E7B1E001C01D92A737B207E1F714
:1000F0003CD322C785CF97B1906497B996B19760EA
:1001000096B996B1906896B996B1906296B997B142
:10011000907E892B87B986B1806486B90895349B17
:10012000FECF84B195B1089581B3816081BB81B365
:10013000826081BB80E280937000089584EA80939E
:100140007400809174008823E4F70895809373000D
:1001500084EC80937400809174008823E4F7089500
:1001600084E980937400089584EC809374008091F6
:1001700074008823E4F780917300089584E88093E5
:100180007400809174008823E4F7809173000895CF
:1001900085B3846085BB81E28A95F1F7000085B361
:1001A0008B7F85BB81E28A95F1F700000895982F37
:1001B000907F916095BB95B3946095BB95B39B7F01
:1001C00095BB20E1829FC0011124816085BB85B36E
:1001D000846085BB85B38B7F85BB89EF90E00197F9
:1001E000F1F700C000000895982F907F95BB95B35C
:1001F000946095BB95B39B7F95BB20E1829FC00126
:10020000112485BB85B3846085BB85B38B7F85BB9B
:1002100089EF90E00197F1F700C00000089581E0B8
:10022000E3DF83EF91E00197F1F700C0000008954C
:100230008FE097E20197F1F700C0000085B38F705F
:1002400085BB85B3806385BBA3DF8BED95E001970C
:10025000F1F700C0000085B38F7085BB85B3806364
:1002600085BB96DF94E69A95F1F785B38F7085BBD1
:1002700085B3806385BB8CDF83EF91E00197F1F755
:1002800000C0000085B38F7085BB85B3806285BBDD
:100290007FDF83EF91E00197F1F700C0000088E273
:1002A000A3DF8CE0A1DF81E09FDF86E09DCF089592
:1002B0000F931F93CF938C01C0E002C078DFCF5F14
:1002C000F801EC0FF11D80818111F8CFCF911F91C2
:1002D0000F9108956F70817090E4899F600D1124D3
:1002E000862F805881CF0895982F92959F70990FEF
:1002F000292F220F220F920F8F70890F08951F92BE
:100300000F920FB60F9211240BB60F922F933F93BB
:100310004F935F936F937F938F939F93AF93BF930D
:10032000CF93DF93EF93FF9312BE8091750190916D
:10033000760101969093760180937501843F9140F8
:1003400039F58BB380958BBBF9DE80EDFFDE80E065
:10035000FDDE06DFF3DE81EDF9DE109274010BC0E5
:10036000D0E002DFC1DFCE5FDE4F88838091740171
:100370008F5F80937401C0917401C63088F3FEDEF4
:10038000B3DF80930801ECDE1092760110927501C4
:10039000FF91EF91DF91CF91BF91AF919F918F919D
:1003A0007F916F915F914F913F912F910F900BBE75
:1003B0000F900FBE0F901F90189583B7846083BF76
:1003C00083B7886083BF89EF81BF87B7826087BFAB
:1003D0000895CF93CFEFCABBCBBB80E08CDEC4BB0C
:1003E000C5BB10926100C093620022DF9DDEE5DF95
:1003F000CF91089590E087309105B0F4FC01EA5B5D
:10040000FF4FA2C289E291E0089581E391E008954F
:1004100085E391E0089589E391E008958DE391E00B
:10042000089582E491E0089586E491E008958DE2D4
:1004300091E00895772314F460E070E0E82FF0E095
:10044000EE5FFE4F60837ADE80ED80DE80E07EDE50
:10045000109274011DC0F0E0EE5FFE4F20819DEC14
:10046000299F912D112496959695969580E1989FB8
:10047000A0011124990F392F330F330F930F822FBF
:10048000891B842B63DE809174018F5F80937401DC
:10049000E0917401E730F8F263CE089590E0803186
:1004A000910508F0B7C0FC01E35BFF4F4DC280919E
:1004B000000190910101919581959109909301011D
:1004C00080930001992324F487B78D7F87BF089517
:1004D00087B7826087BF08958091020190E00196FE
:1004E0006CE370E01ED2BC0180E0A4CF089560915F
:1004F0000201662321F070E06150710902C060E0E2
:1005000070E080E097CF08958091080190E0019617
:1005100064E670E006D2BC0186E08CCF089560915D
:100520000801662321F070E06150710902C060E0AB
:1005300070E086E07FCF08958091030190E00196FE
:100540006CE370E0EED1BC0181E074CF089560915E
:100550000301662321F070E06150710902C060E080
:1005600070E081E067CF08958091070190E00196E7
:100570006CE070E0D6D1BC016F5F7F4F85E05ACF51
:10058000089560910701662321F070E061507109C0
:1005900002C060E070E085E04DCF089580910401D5
:1005A00090E0019668E170E0BCD1BC0182E042CFEE
:1005B000089560910401662321F070E06150710993
:1005C00002C060E070E082E035CF089580910601BE
:1005D00090E001966FE170E0A4D1BC016F5F7F4FA6
:1005E00084E028CF089560910601662321F070E031
:1005F0006150710902C060E070E084E01BCF089593
:100600008091050190E0019667E070E08AD1BC011D
:1006100083E010CF08952091090130910A018217DB
:10062000930718F480E03ACF089520910B013091A0
:100630000C018217930718F481E030CF08952091C0
:100640000D0130910E018217930718F482E026CF36
:10065000089520910F01309110018217930718F42B
:1006600083E01CCF0895209111013091120182176F
:10067000930718F484E012CF08952091130130916C
:1006800014018217930718F485E008CF089520918C
:100690001501309116018217930718F486E0FECEFB
:1006A000089520911701309118018217930718F4CB
:1006B00087E0F4CE08952091190130911A01821734
:1006C000930718F488E0EACE089520911B01309139
:1006D0001C018217930718F489E0E0CE0895209159
:1006E0001D0130911E018217930718F48AE0D6CEBF
:1006F000089520911F01309120018217930718F46B
:100700008BE0CCCE089520912101309122018217F7
:10071000930718F48CE0C2CE089520912301309104
:1007200024018217930718F48DE0B8CE0895209124
:100730002501309126018217930718F48EE0AECE82
:10074000089520912701309128018217930718F40A
:100750008FE0A4CE08952091290130912A018217BB
:10076000930710F480E19ACE0895CF93DF93CDB72D
:10077000DEB764970FB6F894DEBF0FBECDBF29DE9B
:10078000789460E080E0A6DD02E011E0F80183816A
:1007900031DEF8014481358126819F938F931F922A
:1007A0004F931F923F931F922F938AE491E09F9360
:1007B0008F93CE0101967C019F938F93E2D0C70166
:1007C00077DD60E081E086DDF80120819181828122
:1007D0001F922F931F929F931F928F938EE591E00C
:1007E0009F938F93FF92EF92CCD0C70161DDA6DC7F
:1007F00080EDACDC80E0AADC109274010FB6F894B6
:10080000DEBF0FBECDBF1DC0F0E0EE5FFE4F20810A
:100810009DEC299F912D1124969596959695E0E152
:100820009E9FA0011124990F392F330F330F930F7F
:10083000822F891B842B8ADC809174018F5F8093C7
:100840007401E0917401E730F8F28ADC17B867DCD4
:1008500024B185B190E0982F8827822B823FF3E066
:100860009F0750F4D8DE2FEF81EE94E021508040B6
:100870009040E1F700C000008091000190910101DB
:10088000992354F4CCDCEFEFF1EE24E0E150F0409A
:100890002040E1F700C0000060E080E01BDD02E0E6
:1008A00011E0F8018381A6DDF801448135812681BC
:1008B0009F938F931F924F931F923F931F922F935B
:1008C0008AE491E09F938F93CE0101967C019F93E0
:1008D0008F9357D0C701ECDC60E081E0FBDCF801CE
:1008E0002081918182811F922F931F929F931F924B
:1008F0008F938EE591E09F938F93FF92EF9241D07B
:10090000C701D6DCFFEF21EE84E0F15020408040AB
:10091000E1F700C000000FB6F894DEBF0FBECDBFF8
:1009200095CF97FB072E16F4009406D077FD08D0DC
:1009300014D007FC05D03EF4909581959F4F089503
:10094000709561957F4F0895EE0FFF1F0024001CE6
:100950000BBE0790F691E02D0994AA1BBB1B51E139
:1009600007C0AA1FBB1FA617B70710F0A61BB70B1F
:10097000881F991F5A95A9F780959095BC01CD01C4
:1009800008950F931F93CF93DF93CDB7DEB72E97C4
:100990000FB6F894DEBF0FBECDBF0D891E8986E06D
:1009A0008C831A8309838FEF9FE79E838D83AE012B
:1009B000475E5F4F6F89788DCE01019610D0EF8131
:1009C000F885E00FF11F10822E960FB6F894DEBF67
:1009D0000FBECDBFDF91CF911F910F9108952F9240
:1009E0003F924F925F926F927F928F929F92AF92BF
:1009F000BF92CF92DF92EF92FF920F931F93CF930C
:100A0000DF93CDB7DEB72B970FB6F894DEBF0FBEDE
:100A1000CDBF6C017B018A01FC01178216828381A4
:100A200081FFBFC1CE0101963C01F6019381F70120
:100A300093FD859193FF81917F01882309F4ADC1D6
:100A4000853239F493FD859193FF81917F01853241
:100A500021F4B60190E0D6D1E8CF912C212C312C95
:100A6000FFE1F315D8F08B3279F038F4803279F069
:100A70008332A1F4232D20611DC08D3261F08033BB
:100A800069F4232D216016C0832D8260382EE32D5A
:100A9000E4603E2E2AC0F32DF8601DC037FC2DC047
:100AA00020ED280F2A3040F08E32B9F436FC75C1A3
:100AB000232D2064322E19C036FE06C08AE0989E8F
:100AC000200D1124922E11C0EAE02E9E200D11243B
:100AD000222EF32DF0623F2E08C08C3621F4832D98
:100AE0008068382E02C0883641F4F70193FD859165
:100AF00093FF81917F018111B3CF982F9F7D9554F2
:100B0000933028F40C5F1F4F9FE399830DC0833609
:100B100031F0833771F0833509F055C020C0F801FA
:100B2000808189830E5F1F4F88248394912C530109
:100B300012C02801F2E04F0E511CF801A080B180D4
:100B400036FE03C0692D70E002C06FEF7FEFC50174
:100B50004ED14C018201F32DFF773F2E15C02801A5
:100B600022E0420E511CF801A080B18036FE03C085
:100B7000692D70E002C06FEF7FEFC5012DD14C01F0
:100B8000F32DF0683F2E820133FC19C0822D90E0D6
:100B900088169906A0F4B60180E290E033D12A9439
:100BA000F5CFF50137FC859137FE81915F01B601E4
:100BB00090E028D121102A9421E0821A9108811412
:100BC000910479F7E1C0843611F0893639F5F801DE
:100BD00037FE07C060817181828193810C5F1F4F56
:100BE00008C060817181072E000C880B990B0E5F85
:100BF0001F4FF32DFF763F2E97FF09C090958095EC
:100C0000709561957F4F8F4F9F4FF0683F2E2AE080
:100C100030E0A30133D1882E861844C0853731F4E3
:100C2000232D2F7EB22E2AE030E025C0932D997F10
:100C3000B92E8F36C1F018F4883579F0AEC0803700
:100C400019F0883721F0A9C0E92FE061BE2EB4FE6B
:100C50000DC0FB2DF460BF2E09C034FE0AC0292F41
:100C60002660B22E06C028E030E005C020E130E06A
:100C700002C020E132E0F801B7FE07C06081718157
:100C8000828193810C5F1F4F06C06081718180E07B
:100C900090E00E5F1F4FA301F1D0882E8618FB2D28
:100CA000FF773F2E36FE0DC0232D2E7FA22E8914F6
:100CB00058F434FE0BC032FC09C0832D8E7EA82E62
:100CC00005C0B82CA32C03C0B82C01C0B92CA4FEBD
:100CD0000FC0FE01E80DF11D8081803321F49A2DB3
:100CE000997EA92E09C0A2FE06C0B394B39404C095
:100CF0008A2D867809F0B394A3FC10C0A0FE06C02C
:100D0000B21480F4280C922C9B180DC0B21458F425
:100D1000B60180E290E076D0B394F8CFB21418F424
:100D20002B1802C0982C212CA4FE0FC0B60180E322
:100D300090E068D0A2FE16C0A1FC03C088E790E056
:100D400002C088E590E0B6010CC08A2D867851F08B
:100D5000A1FE02C08BE201C080E2A7FC8DE2B601D9
:100D600090E050D0891430F4B60180E390E04AD08E
:100D70009A94F8CF8A94F301E80DF11D8081B601B1
:100D800090E040D08110F6CF222009F44ECEB6017B
:100D900080E290E037D02A94F7CFF60186819781E0
:100DA00002C08FEF9FEF2B960FB6F894DEBF0FBEF9
:100DB000CDBFDF91CF911F910F91FF90EF90DF900A
:100DC000CF90BF90AF909F908F907F906F905F90EB
:100DD0004F903F902F900895FC0105906150704016
:100DE0000110D8F7809590958E0F9F1F0895FC01F4
:100DF0006150704001900110D8F7809590958E0F4A
:100E00009F1F08950F931F93CF93DF93FB012381BF
:100E100021FD03C08FEF9FEF2CC022FF16C046813B
:100E20005781248135814217530744F4A081B18151
:100E30009D012F5F3F4F318320838C932681378123
:100E40002F5F3F4F3783268314C08B01EC01FB01DA
:100E50000084F185E02D0995892BE1F6D8011696DD
:100E60008D919C911797019617969C938E93169748
:100E7000CE01DF91CF911F910F910895FA01AA271A
:100E8000283051F1203181F1E8946F936E7F6E5FCD
:100E90007F4F8F4F9F4FAF4FB1E03ED0B4E03CD07B
:100EA000670F781F891F9A1FA11D680F791F8A1F5E
:100EB000911DA11D6A0F711D811D911DA11D20D0C5
:100EC00009F468943F912AE0269F11243019305D7F
:100ED0003193DEF6CF010895462F4770405D419370
:100EE000B3E00FD0C9F7F6CF462F4F70405D4A33BD
:100EF00018F0495D31FD4052419302D0A9F7EACF85
:100F0000B4E0A6959795879577956795BA95C9F7B3
:100F100000976105710508959B01AC010A2E0694A6
:100F20005795479537952795BA95C9F7620F731F5F
:0C0F3000841F951FA01D0895F894FFCFAA
:100F3C00010000020C0617041514006400B400FA3A
:100F4C000040018601CC01080244028A02C602F864
:100F5C000234036603B603D4035341540053554E75
:100F6C00004D4F4E005455530057454400544855BE
:100F7C0052004652490045525200253032642F250A
:100F8C003032642F25303264282534732900202018
:100F9C00253264203A2025303264203A2025303224
:040FAC0064200000BD
:00000001FF
